{
  "contractName": "TokenFarm",
  "abi": [
    {
      "inputs": [
        {
          "internalType": "contract DappToken",
          "name": "_dappToken",
          "type": "address"
        },
        {
          "internalType": "contract DaiToken",
          "name": "_daiToken",
          "type": "address"
        }
      ],
      "payable": false,
      "stateMutability": "nonpayable",
      "type": "constructor"
    },
    {
      "constant": true,
      "inputs": [],
      "name": "daiToken",
      "outputs": [
        {
          "internalType": "contract DaiToken",
          "name": "",
          "type": "address"
        }
      ],
      "payable": false,
      "stateMutability": "view",
      "type": "function"
    },
    {
      "constant": true,
      "inputs": [],
      "name": "dappToken",
      "outputs": [
        {
          "internalType": "contract DappToken",
          "name": "",
          "type": "address"
        }
      ],
      "payable": false,
      "stateMutability": "view",
      "type": "function"
    },
    {
      "constant": true,
      "inputs": [
        {
          "internalType": "address",
          "name": "",
          "type": "address"
        }
      ],
      "name": "hasStaked",
      "outputs": [
        {
          "internalType": "bool",
          "name": "",
          "type": "bool"
        }
      ],
      "payable": false,
      "stateMutability": "view",
      "type": "function"
    },
    {
      "constant": true,
      "inputs": [
        {
          "internalType": "address",
          "name": "",
          "type": "address"
        }
      ],
      "name": "isStaking",
      "outputs": [
        {
          "internalType": "bool",
          "name": "",
          "type": "bool"
        }
      ],
      "payable": false,
      "stateMutability": "view",
      "type": "function"
    },
    {
      "constant": true,
      "inputs": [],
      "name": "name",
      "outputs": [
        {
          "internalType": "string",
          "name": "",
          "type": "string"
        }
      ],
      "payable": false,
      "stateMutability": "view",
      "type": "function"
    },
    {
      "constant": true,
      "inputs": [],
      "name": "owner",
      "outputs": [
        {
          "internalType": "address",
          "name": "",
          "type": "address"
        }
      ],
      "payable": false,
      "stateMutability": "view",
      "type": "function"
    },
    {
      "constant": true,
      "inputs": [
        {
          "internalType": "uint256",
          "name": "",
          "type": "uint256"
        }
      ],
      "name": "stakers",
      "outputs": [
        {
          "internalType": "address",
          "name": "",
          "type": "address"
        }
      ],
      "payable": false,
      "stateMutability": "view",
      "type": "function"
    },
    {
      "constant": true,
      "inputs": [
        {
          "internalType": "address",
          "name": "",
          "type": "address"
        }
      ],
      "name": "stakingBalance",
      "outputs": [
        {
          "internalType": "uint256",
          "name": "",
          "type": "uint256"
        }
      ],
      "payable": false,
      "stateMutability": "view",
      "type": "function"
    },
    {
      "constant": false,
      "inputs": [
        {
          "internalType": "uint256",
          "name": "_amount",
          "type": "uint256"
        },
        {
          "internalType": "string",
          "name": "_type",
          "type": "string"
        },
        {
          "internalType": "uint256",
          "name": "_currency",
          "type": "uint256"
        },
        {
          "internalType": "string",
          "name": "_typeto",
          "type": "string"
        }
      ],
      "name": "stakeTokens",
      "outputs": [],
      "payable": false,
      "stateMutability": "nonpayable",
      "type": "function"
    },
    {
      "constant": false,
      "inputs": [],
      "name": "unstakeTokens",
      "outputs": [],
      "payable": false,
      "stateMutability": "nonpayable",
      "type": "function"
    },
    {
      "constant": false,
      "inputs": [],
      "name": "issueTokens",
      "outputs": [],
      "payable": false,
      "stateMutability": "nonpayable",
      "type": "function"
    },
    {
      "constant": false,
      "inputs": [
        {
          "internalType": "uint256",
          "name": "_amountToSend",
          "type": "uint256"
        },
        {
          "internalType": "uint256",
          "name": "_amountOfCurrent",
          "type": "uint256"
        },
        {
          "internalType": "address",
          "name": "_toAddress",
          "type": "address"
        }
      ],
      "name": "xferTokens",
      "outputs": [],
      "payable": false,
      "stateMutability": "nonpayable",
      "type": "function"
    },
    {
      "constant": false,
      "inputs": [],
      "name": "withdrawTokens",
      "outputs": [],
      "payable": false,
      "stateMutability": "nonpayable",
      "type": "function"
    }
  ],
  "bytecode": "0x60806040526040518060400160405280601081526020017f4461707020546f6b656e204661726d730000000000000000000000000000000081525060009080519060200190620000519291906200016b565b503480156200005f57600080fd5b506040516200192238038062001922833981810160405260408110156200008557600080fd5b81019080805190602001909291908051906020019092919050505081600260006101000a81548173ffffffffffffffffffffffffffffffffffffffff021916908373ffffffffffffffffffffffffffffffffffffffff16021790555080600360006101000a81548173ffffffffffffffffffffffffffffffffffffffff021916908373ffffffffffffffffffffffffffffffffffffffff16021790555033600160006101000a81548173ffffffffffffffffffffffffffffffffffffffff021916908373ffffffffffffffffffffffffffffffffffffffff16021790555050506200021a565b828054600181600116156101000203166002900490600052602060002090601f016020900481019282601f10620001ae57805160ff1916838001178555620001df565b82800160010185558215620001df579182015b82811115620001de578251825591602001919060010190620001c1565b5b509050620001ee9190620001f2565b5090565b6200021791905b8082111562000213576000816000905550600101620001f9565b5090565b90565b6116f8806200022a6000396000f3fe608060405234801561001057600080fd5b50600436106100cf5760003560e01c80638d8f2adb1161008c578063bc5253c211610066578063bc5253c214610423578063be22f5461461047b578063c93c8f34146104c5578063fd5e6dd114610521576100cf565b80638d8f2adb146103c55780638da5cb5b146103cf578063a5ce413b14610419576100cf565b806306fdde03146100d457806313b314921461015757806345bc78ab146102bd5780635eb186f81461031557806360ab58521461035f5780636f49712b14610369575b600080fd5b6100dc61058f565b6040518080602001828103825283818151815260200191508051906020019080838360005b8381101561011c578082015181840152602081019050610101565b50505050905090810190601f1680156101495780820380516001836020036101000a031916815260200191505b509250505060405180910390f35b6102bb6004803603608081101561016d57600080fd5b81019080803590602001909291908035906020019064010000000081111561019457600080fd5b8201836020820111156101a657600080fd5b803590602001918460018302840111640100000000831117156101c857600080fd5b91908080601f016020809104026020016040519081016040528093929190818152602001838380828437600081840152601f19601f820116905080830192505050505050509192919290803590602001909291908035906020019064010000000081111561023557600080fd5b82018360208201111561024757600080fd5b8035906020019184600183028401116401000000008311171561026957600080fd5b91908080601f016020809104026020016040519081016040528093929190818152602001838380828437600081840152601f19601f82011690508083019250505050505050919291929050505061062d565b005b6102ff600480360360208110156102d357600080fd5b81019080803573ffffffffffffffffffffffffffffffffffffffff169060200190929190505050610da5565b6040518082815260200191505060405180910390f35b61031d610dbd565b604051808273ffffffffffffffffffffffffffffffffffffffff1673ffffffffffffffffffffffffffffffffffffffff16815260200191505060405180910390f35b610367610de3565b005b6103ab6004803603602081101561037f57600080fd5b81019080803573ffffffffffffffffffffffffffffffffffffffff16906020019092919050505061103a565b604051808215151515815260200191505060405180910390f35b6103cd61105a565b005b6103d7611220565b604051808273ffffffffffffffffffffffffffffffffffffffff1673ffffffffffffffffffffffffffffffffffffffff16815260200191505060405180910390f35b610421611246565b005b6104796004803603606081101561043957600080fd5b810190808035906020019092919080359060200190929190803573ffffffffffffffffffffffffffffffffffffffff16906020019092919050505061140f565b005b610483611641565b604051808273ffffffffffffffffffffffffffffffffffffffff1673ffffffffffffffffffffffffffffffffffffffff16815260200191505060405180910390f35b610507600480360360208110156104db57600080fd5b81019080803573ffffffffffffffffffffffffffffffffffffffff169060200190929190505050611667565b604051808215151515815260200191505060405180910390f35b61054d6004803603602081101561053757600080fd5b8101908080359060200190929190505050611687565b604051808273ffffffffffffffffffffffffffffffffffffffff1673ffffffffffffffffffffffffffffffffffffffff16815260200191505060405180910390f35b60008054600181600116156101000203166002900480601f0160208091040260200160405190810160405280929190818152602001828054600181600116156101000203166002900480156106255780601f106105fa57610100808354040283529160200191610625565b820191906000526020600020905b81548152906001019060200180831161060857829003601f168201915b505050505081565b600084116106a3576040517f08c379a00000000000000000000000000000000000000000000000000000000081526004018080602001828103825260128152602001807f616d6f756e742063616e6e6f742062652030000000000000000000000000000081525060200191505060405180910390fd5b60405160200180807f6461690000000000000000000000000000000000000000000000000000000000815250600301905060405160208183030381529060405280519060200120836040516020018082805190602001908083835b6020831061072157805182526020820191506020810190506020830392506106fe565b6001836020036101000a03801982511681845116808217855250505050505090500191505060405160208183030381529060405280519060200120141561087c57600360009054906101000a900473ffffffffffffffffffffffffffffffffffffffff1673ffffffffffffffffffffffffffffffffffffffff166323b872dd3330876040518463ffffffff1660e01b8152600401808473ffffffffffffffffffffffffffffffffffffffff1673ffffffffffffffffffffffffffffffffffffffff1681526020018373ffffffffffffffffffffffffffffffffffffffff1673ffffffffffffffffffffffffffffffffffffffff1681526020018281526020019350505050602060405180830381600087803b15801561083f57600080fd5b505af1158015610853573d6000803e3d6000fd5b505050506040513d602081101561086957600080fd5b8101908080519060200190929190505050505b60405160200180807f6461707000000000000000000000000000000000000000000000000000000000815250600401905060405160208183030381529060405280519060200120836040516020018082805190602001908083835b602083106108fa57805182526020820191506020810190506020830392506108d7565b6001836020036101000a038019825116818451168082178552505050505050905001915050604051602081830303815290604052805190602001201415610a5557600260009054906101000a900473ffffffffffffffffffffffffffffffffffffffff1673ffffffffffffffffffffffffffffffffffffffff166323b872dd3330876040518463ffffffff1660e01b8152600401808473ffffffffffffffffffffffffffffffffffffffff1673ffffffffffffffffffffffffffffffffffffffff1681526020018373ffffffffffffffffffffffffffffffffffffffff1673ffffffffffffffffffffffffffffffffffffffff1681526020018281526020019350505050602060405180830381600087803b158015610a1857600080fd5b505af1158015610a2c573d6000803e3d6000fd5b505050506040513d6020811015610a4257600080fd5b8101908080519060200190929190505050505b60405160200180807f6461707000000000000000000000000000000000000000000000000000000000815250600401905060405160208183030381529060405280519060200120816040516020018082805190602001908083835b60208310610ad35780518252602082019150602081019050602083039250610ab0565b6001836020036101000a038019825116818451168082178552505050505050905001915050604051602081830303815290604052805190602001201415610bfa57600260009054906101000a900473ffffffffffffffffffffffffffffffffffffffff1673ffffffffffffffffffffffffffffffffffffffff1663a9059cbb33846040518363ffffffff1660e01b8152600401808373ffffffffffffffffffffffffffffffffffffffff1673ffffffffffffffffffffffffffffffffffffffff16815260200182815260200192505050602060405180830381600087803b158015610bbd57600080fd5b505af1158015610bd1573d6000803e3d6000fd5b505050506040513d6020811015610be757600080fd5b8101908080519060200190929190505050505b60405160200180807f6461690000000000000000000000000000000000000000000000000000000000815250600301905060405160208183030381529060405280519060200120816040516020018082805190602001908083835b60208310610c785780518252602082019150602081019050602083039250610c55565b6001836020036101000a038019825116818451168082178552505050505050905001915050604051602081830303815290604052805190602001201415610d9f57600360009054906101000a900473ffffffffffffffffffffffffffffffffffffffff1673ffffffffffffffffffffffffffffffffffffffff1663a9059cbb33846040518363ffffffff1660e01b8152600401808373ffffffffffffffffffffffffffffffffffffffff1673ffffffffffffffffffffffffffffffffffffffff16815260200182815260200192505050602060405180830381600087803b158015610d6257600080fd5b505af1158015610d76573d6000803e3d6000fd5b505050506040513d6020811015610d8c57600080fd5b8101908080519060200190929190505050505b50505050565b60056020528060005260406000206000915090505481565b600260009054906101000a900473ffffffffffffffffffffffffffffffffffffffff1681565b600160009054906101000a900473ffffffffffffffffffffffffffffffffffffffff1673ffffffffffffffffffffffffffffffffffffffff163373ffffffffffffffffffffffffffffffffffffffff1614610ea6576040517f08c379a00000000000000000000000000000000000000000000000000000000081526004018080602001828103825260148152602001807f63616c6c6572206d757374206265206f776e657200000000000000000000000081525060200191505060405180910390fd5b60008090505b60048054905081101561103757600060048281548110610ec857fe5b9060005260206000200160009054906101000a900473ffffffffffffffffffffffffffffffffffffffff1690506000600560008373ffffffffffffffffffffffffffffffffffffffff1673ffffffffffffffffffffffffffffffffffffffff168152602001908152602001600020549050600081111561102857600260009054906101000a900473ffffffffffffffffffffffffffffffffffffffff1673ffffffffffffffffffffffffffffffffffffffff1663a9059cbb83836040518363ffffffff1660e01b8152600401808373ffffffffffffffffffffffffffffffffffffffff1673ffffffffffffffffffffffffffffffffffffffff16815260200182815260200192505050602060405180830381600087803b158015610feb57600080fd5b505af1158015610fff573d6000803e3d6000fd5b505050506040513d602081101561101557600080fd5b8101908080519060200190929190505050505b50508080600101915050610eac565b50565b60076020528060005260406000206000915054906101000a900460ff1681565b6000600260009054906101000a900473ffffffffffffffffffffffffffffffffffffffff1673ffffffffffffffffffffffffffffffffffffffff166370a08231336040518263ffffffff1660e01b8152600401808273ffffffffffffffffffffffffffffffffffffffff1673ffffffffffffffffffffffffffffffffffffffff16815260200191505060206040518083038186803b1580156110fb57600080fd5b505afa15801561110f573d6000803e3d6000fd5b505050506040513d602081101561112557600080fd5b81019080805190602001909291905050509050600260009054906101000a900473ffffffffffffffffffffffffffffffffffffffff1673ffffffffffffffffffffffffffffffffffffffff1663a9059cbb33836040518363ffffffff1660e01b8152600401808373ffffffffffffffffffffffffffffffffffffffff1673ffffffffffffffffffffffffffffffffffffffff16815260200182815260200192505050602060405180830381600087803b1580156111e157600080fd5b505af11580156111f5573d6000803e3d6000fd5b505050506040513d602081101561120b57600080fd5b81019080805190602001909291905050505050565b600160009054906101000a900473ffffffffffffffffffffffffffffffffffffffff1681565b6000600560003373ffffffffffffffffffffffffffffffffffffffff1673ffffffffffffffffffffffffffffffffffffffff168152602001908152602001600020549050600360009054906101000a900473ffffffffffffffffffffffffffffffffffffffff1673ffffffffffffffffffffffffffffffffffffffff1663a9059cbb33836040518363ffffffff1660e01b8152600401808373ffffffffffffffffffffffffffffffffffffffff1673ffffffffffffffffffffffffffffffffffffffff16815260200182815260200192505050602060405180830381600087803b15801561133357600080fd5b505af1158015611347573d6000803e3d6000fd5b505050506040513d602081101561135d57600080fd5b8101908080519060200190929190505050506000600560003373ffffffffffffffffffffffffffffffffffffffff1673ffffffffffffffffffffffffffffffffffffffff168152602001908152602001600020819055506000600660003373ffffffffffffffffffffffffffffffffffffffff1673ffffffffffffffffffffffffffffffffffffffff16815260200190815260200160002060006101000a81548160ff02191690831515021790555050565b600160009054906101000a900473ffffffffffffffffffffffffffffffffffffffff1673ffffffffffffffffffffffffffffffffffffffff163373ffffffffffffffffffffffffffffffffffffffff16146114d2576040517f08c379a00000000000000000000000000000000000000000000000000000000081526004018080602001828103825260148152602001807f63616c6c6572206d757374206265206f776e657200000000000000000000000081525060200191505060405180910390fd5b600260009054906101000a900473ffffffffffffffffffffffffffffffffffffffff1673ffffffffffffffffffffffffffffffffffffffff1663a9059cbb82856040518363ffffffff1660e01b8152600401808373ffffffffffffffffffffffffffffffffffffffff1673ffffffffffffffffffffffffffffffffffffffff16815260200182815260200192505050602060405180830381600087803b15801561157b57600080fd5b505af115801561158f573d6000803e3d6000fd5b505050506040513d60208110156115a557600080fd5b81019080805190602001909291905050505081600560003373ffffffffffffffffffffffffffffffffffffffff1673ffffffffffffffffffffffffffffffffffffffff1681526020019081526020016000205403600560003373ffffffffffffffffffffffffffffffffffffffff1673ffffffffffffffffffffffffffffffffffffffff16815260200190815260200160002081905550505050565b600360009054906101000a900473ffffffffffffffffffffffffffffffffffffffff1681565b60066020528060005260406000206000915054906101000a900460ff1681565b6004818154811061169457fe5b906000526020600020016000915054906101000a900473ffffffffffffffffffffffffffffffffffffffff168156fea265627a7a723158201025a485811f4f606263c0e578088157a6bc964a18de96db06d76d2fd067d34764736f6c63430005100032",
  "source": "pragma solidity ^0.5.0;\r\n\r\n//pull Src code of the two token into this file\r\nimport \"./DappToken.sol\";\r\nimport \"./DaiToken.sol\";\r\nimport \"./BDTFToken.sol\";\r\n\r\n\r\n//assume both tokens has been deployed into the network\r\n\r\ncontract TokenFarm {\r\n    //give contract name\r\n    string public name = \"Dapp Token Farms\";\r\n    // this is variable ^ stored on BC -- solidity is statically typed\r\n\r\n    address public owner;\r\n\r\n    //state variable -- global var\r\n    DappToken public dappToken;\r\n    DaiToken public daiToken;\r\n    // BDTFToken public bdtfToken;\r\n\r\n    address[] public stakers;\r\n    mapping(address => uint256) public stakingBalance;\r\n    mapping(address => bool) public hasStaked;\r\n    mapping(address => bool) public isStaking;\r\n\r\n    constructor(DappToken _dappToken, DaiToken _daiToken) public {\r\n        //get address from both deployed tokens (where they are located) and pass them into SC tokenfarm whenever its created\r\n        //assign into state variable\r\n        dappToken = _dappToken;\r\n        daiToken = _daiToken;\r\n        // BDTFToken = _bdtfToken;\r\n        owner = msg.sender;\r\n    }\r\n\r\n    //1. stake tokens (Deposit) //xfer money from investor to the TokenFarm SC\r\n    // CHANGE THIS FUNCTION TO EXCHANGE\r\n    function stakeTokens(uint256 _amount,  string memory _type, uint256 _currency, string memory _typeto) public {\r\n        //error handling\r\n        require(_amount > 0, \"amount cannot be 0\");\r\n       \r\n        // deposit\r\n        if (keccak256(abi.encodePacked(_type)) == keccak256(abi.encodePacked(\"dai\"))){\r\n            daiToken.transferFrom(msg.sender, address(this), _amount);\r\n        }\r\n        if (keccak256(abi.encodePacked(_type)) == keccak256(abi.encodePacked(\"dapp\"))){\r\n            dappToken.transferFrom(msg.sender, address(this), _amount);\r\n        }\r\n\r\n        // exchanged\r\n        if (keccak256(abi.encodePacked(_typeto)) == keccak256(abi.encodePacked(\"dapp\"))){\r\n            dappToken.transfer(msg.sender, _currency);\r\n        }\r\n        if (keccak256(abi.encodePacked(_typeto)) == keccak256(abi.encodePacked(\"dai\"))){\r\n            daiToken.transfer(msg.sender, _currency);\r\n        }\r\n        //xfer Mock Dai tokens to this SC\r\n        //msg is a global var... sender is whoever initiated that function\r\n        // deposit\r\n        // if (_type == \"dai\"){\r\n        //     daiToken.transferFrom(msg.sender, address(this), _amount);\r\n        // }\r\n        // if (_type == \"dapp\"){\r\n        //     dappToken.transferFrom(msg.sender, address(this), _amount);\r\n        // }\r\n\r\n        // if (_typeto == \"dapp\"){\r\n        //     dappToken.transfer(msg.sender, _currency);\r\n        // }\r\n        // if (_typeto == \"dai\"){\r\n        //     daiToken.transfer(msg.sender, _currency);\r\n        // }\r\n        // if (_type == \"dapp\"){\r\n        //     dappToken.transfer(msg.sender, amtSend);\r\n        // }\r\n\r\n\r\n\r\n\r\n        // if (_type == \"dapp\") {\r\n        // if (_type == \"php\") {\r\n        \r\n\r\n\r\n        //Update staking balance\r\n        // stakingBalance[msg.sender] = stakingBalance[msg.sender] + _amount;\r\n\r\n        //add user to staker array *only if they havent stake already //dont think this is needed\r\n        // if (!hasStaked[msg.sender]) {\r\n        //     stakers.push(msg.sender);\r\n        // }\r\n\r\n        // //update staking status //dont think this is needed\r\n        // isStaking[msg.sender] = true;\r\n        // hasStaked[msg.sender] = true;\r\n        // exchangeToken(_amount);\r\n    }\r\n\r\n    //2. unstaking tokens (Withdraw)\r\n    function unstakeTokens() public {\r\n        //fetch staking balance\r\n        uint256 balance = stakingBalance[msg.sender];\r\n\r\n        //xfer deposit token (daitoken) back to investor\r\n        daiToken.transfer(msg.sender, balance);\r\n\r\n        //reset staking\r\n        stakingBalance[msg.sender] = 0;\r\n\r\n        //update staking status\r\n        hasStaked[msg.sender] = false;\r\n    }\r\n\r\n    // function exchangeToken(_amount) public {\r\n    //     // require(msg.sender == owner, \"caller must be owner\");\r\n    //     dappToken.transfer(msg.sender, _amount);\r\n\r\n  \r\n    // }\r\n    //3. issuing tokens (-- give it to another account here )\r\n    function issueTokens() public {\r\n        require(msg.sender == owner, \"caller must be owner\");\r\n\r\n        for (uint256 i = 0; i < stakers.length; i++) {\r\n            address recipient = stakers[i];\r\n            uint256 balance = stakingBalance[recipient];\r\n            if (balance > 0) {\r\n                dappToken.transfer(recipient, balance);\r\n            }\r\n        }\r\n    }\r\n\r\n    //what we need???!!\r\n\r\n    //press a button to xfer = call this function!\r\n    //amountToSend is the calculated rate (For example xfer 1USD over, the recipent will receive equivalent money depending on the currency (for example SGD is 1.3))\r\n    //need to know address of recipent --> check tmr!\r\n    function xferTokens(\r\n        uint256 _amountToSend,\r\n        uint256 _amountOfCurrent,\r\n        address _toAddress\r\n    ) public {\r\n        //only owner can call this function\r\n        require(msg.sender == owner, \"caller must be owner\");\r\n        //xfer Mock Dai tokens to this SC\r\n        //msg is a global var... sender is whoever initiated that function\r\n        //xfer to another account --> tokenFarm already have that token xfer to it, like dApp token liddat\r\n        // anotherToken.transfer(_toAddress, _amount)\r\n        //cr8 var amountoSend --> check exchnage rate first\r\n        dappToken.transfer(_toAddress, _amountToSend); //amttosend here);\r\n\r\n        //Update deposit balance\r\n        stakingBalance[msg.sender] =\r\n            stakingBalance[msg.sender] -\r\n            _amountOfCurrent;\r\n    }\r\n\r\n    //login as recipient account and withdraw the money received , press a button to withdraw\r\n    //have a page called \"Balance\" , auto update balance??? and have withdraw button\r\n    function withdrawTokens() public {\r\n        //fetch current balance (if got xfer)\r\n        //depend on currency and replace dapptoken accordingly\r\n        uint256 balance = dappToken.balanceOf(msg.sender);\r\n\r\n        //xfer given token (dapptoken) to own account -- same for this\r\n        dappToken.transfer(msg.sender, balance);\r\n    }\r\n\r\n    //try send money\r\n}\r\n",
  "sourcePath": "/mnt/d/Y4S1/IS452/Forest/blockchain/src/contracts/TokenFarm.sol",
  "compiler": {
    "name": "solc",
    "version": "0.5.16+commit.9c3226ce.Emscripten.clang"
  },
  "schemaVersion": "3.4.3",
  "updatedAt": "2021-11-06T19:07:19.580Z",
  "networkType": "ethereum",
  "devdoc": {
    "methods": {}
  },
  "userdoc": {
    "methods": {}
  }
}