{
  "contractName": "TokenFarm",
  "abi": [
    {
      "inputs": [
        {
          "internalType": "contract DappToken",
          "name": "_dappToken",
          "type": "address"
        },
        {
          "internalType": "contract DaiToken",
          "name": "_daiToken",
          "type": "address"
        },
        {
          "internalType": "contract BdtfToken",
          "name": "_bdtfToken",
          "type": "address"
        }
      ],
      "payable": false,
      "stateMutability": "nonpayable",
      "type": "constructor"
    },
    {
      "constant": true,
      "inputs": [],
      "name": "bdtfToken",
      "outputs": [
        {
          "internalType": "contract BdtfToken",
          "name": "",
          "type": "address"
        }
      ],
      "payable": false,
      "stateMutability": "view",
      "type": "function"
    },
    {
      "constant": true,
      "inputs": [],
      "name": "daiToken",
      "outputs": [
        {
          "internalType": "contract DaiToken",
          "name": "",
          "type": "address"
        }
      ],
      "payable": false,
      "stateMutability": "view",
      "type": "function"
    },
    {
      "constant": true,
      "inputs": [],
      "name": "dappToken",
      "outputs": [
        {
          "internalType": "contract DappToken",
          "name": "",
          "type": "address"
        }
      ],
      "payable": false,
      "stateMutability": "view",
      "type": "function"
    },
    {
      "constant": true,
      "inputs": [
        {
          "internalType": "address",
          "name": "",
          "type": "address"
        }
      ],
      "name": "hasStaked",
      "outputs": [
        {
          "internalType": "bool",
          "name": "",
          "type": "bool"
        }
      ],
      "payable": false,
      "stateMutability": "view",
      "type": "function"
    },
    {
      "constant": true,
      "inputs": [
        {
          "internalType": "address",
          "name": "",
          "type": "address"
        }
      ],
      "name": "isStaking",
      "outputs": [
        {
          "internalType": "bool",
          "name": "",
          "type": "bool"
        }
      ],
      "payable": false,
      "stateMutability": "view",
      "type": "function"
    },
    {
      "constant": true,
      "inputs": [],
      "name": "name",
      "outputs": [
        {
          "internalType": "string",
          "name": "",
          "type": "string"
        }
      ],
      "payable": false,
      "stateMutability": "view",
      "type": "function"
    },
    {
      "constant": true,
      "inputs": [],
      "name": "owner",
      "outputs": [
        {
          "internalType": "address",
          "name": "",
          "type": "address"
        }
      ],
      "payable": false,
      "stateMutability": "view",
      "type": "function"
    },
    {
      "constant": true,
      "inputs": [
        {
          "internalType": "uint256",
          "name": "",
          "type": "uint256"
        }
      ],
      "name": "stakers",
      "outputs": [
        {
          "internalType": "address",
          "name": "",
          "type": "address"
        }
      ],
      "payable": false,
      "stateMutability": "view",
      "type": "function"
    },
    {
      "constant": true,
      "inputs": [
        {
          "internalType": "address",
          "name": "",
          "type": "address"
        }
      ],
      "name": "stakingBalance",
      "outputs": [
        {
          "internalType": "uint256",
          "name": "",
          "type": "uint256"
        }
      ],
      "payable": false,
      "stateMutability": "view",
      "type": "function"
    },
    {
      "constant": false,
      "inputs": [
        {
          "internalType": "uint256",
          "name": "_amount",
          "type": "uint256"
        },
        {
          "internalType": "string",
          "name": "_type",
          "type": "string"
        },
        {
          "internalType": "uint256",
          "name": "_currency",
          "type": "uint256"
        },
        {
          "internalType": "string",
          "name": "_typeto",
          "type": "string"
        }
      ],
      "name": "stakeTokens",
      "outputs": [],
      "payable": false,
      "stateMutability": "nonpayable",
      "type": "function"
    },
    {
      "constant": false,
      "inputs": [
        {
          "internalType": "uint256",
          "name": "_amount",
          "type": "uint256"
        },
        {
          "internalType": "string",
          "name": "_type",
          "type": "string"
        },
        {
          "internalType": "string",
          "name": "_typeto",
          "type": "string"
        }
      ],
      "name": "P2P_Xfers",
      "outputs": [],
      "payable": false,
      "stateMutability": "nonpayable",
      "type": "function"
    },
    {
      "constant": false,
      "inputs": [],
      "name": "unstakeTokens",
      "outputs": [],
      "payable": false,
      "stateMutability": "nonpayable",
      "type": "function"
    },
    {
      "constant": false,
      "inputs": [],
      "name": "issueTokens",
      "outputs": [],
      "payable": false,
      "stateMutability": "nonpayable",
      "type": "function"
    },
    {
      "constant": false,
      "inputs": [
        {
          "internalType": "uint256",
          "name": "_amountToSend",
          "type": "uint256"
        },
        {
          "internalType": "uint256",
          "name": "_amountOfCurrent",
          "type": "uint256"
        },
        {
          "internalType": "address",
          "name": "_toAddress",
          "type": "address"
        }
      ],
      "name": "xferTokens",
      "outputs": [],
      "payable": false,
      "stateMutability": "nonpayable",
      "type": "function"
    },
    {
      "constant": false,
      "inputs": [],
      "name": "withdrawTokens",
      "outputs": [],
      "payable": false,
      "stateMutability": "nonpayable",
      "type": "function"
    }
  ],
  "bytecode": "0x60806040526040518060400160405280601081526020017f4461707020546f6b656e204661726d73000000000000000000000000000000008152506000908051906020019062000051929190620001b7565b503480156200005f57600080fd5b506040516200274b3803806200274b833981810160405260608110156200008557600080fd5b8101908080519060200190929190805190602001909291908051906020019092919050505082600260006101000a81548173ffffffffffffffffffffffffffffffffffffffff021916908373ffffffffffffffffffffffffffffffffffffffff16021790555081600360006101000a81548173ffffffffffffffffffffffffffffffffffffffff021916908373ffffffffffffffffffffffffffffffffffffffff16021790555080600460006101000a81548173ffffffffffffffffffffffffffffffffffffffff021916908373ffffffffffffffffffffffffffffffffffffffff16021790555033600160006101000a81548173ffffffffffffffffffffffffffffffffffffffff021916908373ffffffffffffffffffffffffffffffffffffffff16021790555050505062000266565b828054600181600116156101000203166002900490600052602060002090601f016020900481019282601f10620001fa57805160ff19168380011785556200022b565b828001600101855582156200022b579182015b828111156200022a5782518255916020019190600101906200020d565b5b5090506200023a91906200023e565b5090565b6200026391905b808211156200025f57600081600090555060010162000245565b5090565b90565b6124d580620002766000396000f3fe608060405234801561001057600080fd5b50600436106100f55760003560e01c80638d8f2adb11610097578063bc5253c211610066578063bc5253c2146105ef578063be22f54614610647578063c93c8f3414610691578063fd5e6dd1146106ed576100f5565b80638d8f2adb146105475780638da5cb5b14610551578063907ad8661461059b578063a5ce413b146105e5576100f5565b80635eb186f8116100d35780635eb186f81461033b57806360ab5852146103855780636f49712b1461038f5780637be3a1da146103eb576100f5565b806306fdde03146100fa57806313b314921461017d57806345bc78ab146102e3575b600080fd5b61010261075b565b6040518080602001828103825283818151815260200191508051906020019080838360005b83811015610142578082015181840152602081019050610127565b50505050905090810190601f16801561016f5780820380516001836020036101000a031916815260200191505b509250505060405180910390f35b6102e16004803603608081101561019357600080fd5b8101908080359060200190929190803590602001906401000000008111156101ba57600080fd5b8201836020820111156101cc57600080fd5b803590602001918460018302840111640100000000831117156101ee57600080fd5b91908080601f016020809104026020016040519081016040528093929190818152602001838380828437600081840152601f19601f820116905080830192505050505050509192919290803590602001909291908035906020019064010000000081111561025b57600080fd5b82018360208201111561026d57600080fd5b8035906020019184600183028401116401000000008311171561028f57600080fd5b91908080601f016020809104026020016040519081016040528093929190818152602001838380828437600081840152601f19601f8201169050808301925050505050505091929192905050506107f9565b005b610325600480360360208110156102f957600080fd5b81019080803573ffffffffffffffffffffffffffffffffffffffff1690602001909291905050506112ef565b6040518082815260200191505060405180910390f35b610343611307565b604051808273ffffffffffffffffffffffffffffffffffffffff1673ffffffffffffffffffffffffffffffffffffffff16815260200191505060405180910390f35b61038d61132d565b005b6103d1600480360360208110156103a557600080fd5b81019080803573ffffffffffffffffffffffffffffffffffffffff169060200190929190505050611584565b604051808215151515815260200191505060405180910390f35b6105456004803603606081101561040157600080fd5b81019080803590602001909291908035906020019064010000000081111561042857600080fd5b82018360208201111561043a57600080fd5b8035906020019184600183028401116401000000008311171561045c57600080fd5b91908080601f016020809104026020016040519081016040528093929190818152602001838380828437600081840152601f19601f820116905080830192505050505050509192919290803590602001906401000000008111156104bf57600080fd5b8201836020820111156104d157600080fd5b803590602001918460018302840111640100000000831117156104f357600080fd5b91908080601f016020809104026020016040519081016040528093929190818152602001838380828437600081840152601f19601f8201169050808301925050505050505091929192905050506115a4565b005b61054f611bb8565b005b610559611d7e565b604051808273ffffffffffffffffffffffffffffffffffffffff1673ffffffffffffffffffffffffffffffffffffffff16815260200191505060405180910390f35b6105a3611da4565b604051808273ffffffffffffffffffffffffffffffffffffffff1673ffffffffffffffffffffffffffffffffffffffff16815260200191505060405180910390f35b6105ed611dca565b005b6106456004803603606081101561060557600080fd5b810190808035906020019092919080359060200190929190803573ffffffffffffffffffffffffffffffffffffffff169060200190929190505050611f93565b005b61064f6121c5565b604051808273ffffffffffffffffffffffffffffffffffffffff1673ffffffffffffffffffffffffffffffffffffffff16815260200191505060405180910390f35b6106d3600480360360208110156106a757600080fd5b81019080803573ffffffffffffffffffffffffffffffffffffffff1690602001909291905050506121eb565b604051808215151515815260200191505060405180910390f35b6107196004803603602081101561070357600080fd5b810190808035906020019092919050505061220b565b604051808273ffffffffffffffffffffffffffffffffffffffff1673ffffffffffffffffffffffffffffffffffffffff16815260200191505060405180910390f35b60008054600181600116156101000203166002900480601f0160208091040260200160405190810160405280929190818152602001828054600181600116156101000203166002900480156107f15780601f106107c6576101008083540402835291602001916107f1565b820191906000526020600020905b8154815290600101906020018083116107d457829003601f168201915b505050505081565b6000841161086f576040517f08c379a00000000000000000000000000000000000000000000000000000000081526004018080602001828103825260128152602001807f616d6f756e742063616e6e6f742062652030000000000000000000000000000081525060200191505060405180910390fd5b60405160200180807f6461690000000000000000000000000000000000000000000000000000000000815250600301905060405160208183030381529060405280519060200120836040516020018082805190602001908083835b602083106108ed57805182526020820191506020810190506020830392506108ca565b6001836020036101000a038019825116818451168082178552505050505050905001915050604051602081830303815290604052805190602001201415610a4857600360009054906101000a900473ffffffffffffffffffffffffffffffffffffffff1673ffffffffffffffffffffffffffffffffffffffff166323b872dd3330876040518463ffffffff1660e01b8152600401808473ffffffffffffffffffffffffffffffffffffffff1673ffffffffffffffffffffffffffffffffffffffff1681526020018373ffffffffffffffffffffffffffffffffffffffff1673ffffffffffffffffffffffffffffffffffffffff1681526020018281526020019350505050602060405180830381600087803b158015610a0b57600080fd5b505af1158015610a1f573d6000803e3d6000fd5b505050506040513d6020811015610a3557600080fd5b8101908080519060200190929190505050505b60405160200180807f6461707000000000000000000000000000000000000000000000000000000000815250600401905060405160208183030381529060405280519060200120836040516020018082805190602001908083835b60208310610ac65780518252602082019150602081019050602083039250610aa3565b6001836020036101000a038019825116818451168082178552505050505050905001915050604051602081830303815290604052805190602001201415610c2157600260009054906101000a900473ffffffffffffffffffffffffffffffffffffffff1673ffffffffffffffffffffffffffffffffffffffff166323b872dd3330876040518463ffffffff1660e01b8152600401808473ffffffffffffffffffffffffffffffffffffffff1673ffffffffffffffffffffffffffffffffffffffff1681526020018373ffffffffffffffffffffffffffffffffffffffff1673ffffffffffffffffffffffffffffffffffffffff1681526020018281526020019350505050602060405180830381600087803b158015610be457600080fd5b505af1158015610bf8573d6000803e3d6000fd5b505050506040513d6020811015610c0e57600080fd5b8101908080519060200190929190505050505b60405160200180807f6264746600000000000000000000000000000000000000000000000000000000815250600401905060405160208183030381529060405280519060200120836040516020018082805190602001908083835b60208310610c9f5780518252602082019150602081019050602083039250610c7c565b6001836020036101000a038019825116818451168082178552505050505050905001915050604051602081830303815290604052805190602001201415610dfa57600460009054906101000a900473ffffffffffffffffffffffffffffffffffffffff1673ffffffffffffffffffffffffffffffffffffffff166323b872dd3330876040518463ffffffff1660e01b8152600401808473ffffffffffffffffffffffffffffffffffffffff1673ffffffffffffffffffffffffffffffffffffffff1681526020018373ffffffffffffffffffffffffffffffffffffffff1673ffffffffffffffffffffffffffffffffffffffff1681526020018281526020019350505050602060405180830381600087803b158015610dbd57600080fd5b505af1158015610dd1573d6000803e3d6000fd5b505050506040513d6020811015610de757600080fd5b8101908080519060200190929190505050505b60405160200180807f6461707000000000000000000000000000000000000000000000000000000000815250600401905060405160208183030381529060405280519060200120816040516020018082805190602001908083835b60208310610e785780518252602082019150602081019050602083039250610e55565b6001836020036101000a038019825116818451168082178552505050505050905001915050604051602081830303815290604052805190602001201415610f9f57600260009054906101000a900473ffffffffffffffffffffffffffffffffffffffff1673ffffffffffffffffffffffffffffffffffffffff1663a9059cbb33846040518363ffffffff1660e01b8152600401808373ffffffffffffffffffffffffffffffffffffffff1673ffffffffffffffffffffffffffffffffffffffff16815260200182815260200192505050602060405180830381600087803b158015610f6257600080fd5b505af1158015610f76573d6000803e3d6000fd5b505050506040513d6020811015610f8c57600080fd5b8101908080519060200190929190505050505b60405160200180807f6461690000000000000000000000000000000000000000000000000000000000815250600301905060405160208183030381529060405280519060200120816040516020018082805190602001908083835b6020831061101d5780518252602082019150602081019050602083039250610ffa565b6001836020036101000a03801982511681845116808217855250505050505090500191505060405160208183030381529060405280519060200120141561114457600360009054906101000a900473ffffffffffffffffffffffffffffffffffffffff1673ffffffffffffffffffffffffffffffffffffffff1663a9059cbb33846040518363ffffffff1660e01b8152600401808373ffffffffffffffffffffffffffffffffffffffff1673ffffffffffffffffffffffffffffffffffffffff16815260200182815260200192505050602060405180830381600087803b15801561110757600080fd5b505af115801561111b573d6000803e3d6000fd5b505050506040513d602081101561113157600080fd5b8101908080519060200190929190505050505b60405160200180807f6264746600000000000000000000000000000000000000000000000000000000815250600401905060405160208183030381529060405280519060200120816040516020018082805190602001908083835b602083106111c2578051825260208201915060208101905060208303925061119f565b6001836020036101000a0380198251168184511680821785525050505050509050019150506040516020818303038152906040528051906020012014156112e957600460009054906101000a900473ffffffffffffffffffffffffffffffffffffffff1673ffffffffffffffffffffffffffffffffffffffff1663a9059cbb33846040518363ffffffff1660e01b8152600401808373ffffffffffffffffffffffffffffffffffffffff1673ffffffffffffffffffffffffffffffffffffffff16815260200182815260200192505050602060405180830381600087803b1580156112ac57600080fd5b505af11580156112c0573d6000803e3d6000fd5b505050506040513d60208110156112d657600080fd5b8101908080519060200190929190505050505b50505050565b60066020528060005260406000206000915090505481565b600260009054906101000a900473ffffffffffffffffffffffffffffffffffffffff1681565b600160009054906101000a900473ffffffffffffffffffffffffffffffffffffffff1673ffffffffffffffffffffffffffffffffffffffff163373ffffffffffffffffffffffffffffffffffffffff16146113f0576040517f08c379a00000000000000000000000000000000000000000000000000000000081526004018080602001828103825260148152602001807f63616c6c6572206d757374206265206f776e657200000000000000000000000081525060200191505060405180910390fd5b60008090505b6005805490508110156115815760006005828154811061141257fe5b9060005260206000200160009054906101000a900473ffffffffffffffffffffffffffffffffffffffff1690506000600660008373ffffffffffffffffffffffffffffffffffffffff1673ffffffffffffffffffffffffffffffffffffffff168152602001908152602001600020549050600081111561157257600260009054906101000a900473ffffffffffffffffffffffffffffffffffffffff1673ffffffffffffffffffffffffffffffffffffffff1663a9059cbb83836040518363ffffffff1660e01b8152600401808373ffffffffffffffffffffffffffffffffffffffff1673ffffffffffffffffffffffffffffffffffffffff16815260200182815260200192505050602060405180830381600087803b15801561153557600080fd5b505af1158015611549573d6000803e3d6000fd5b505050506040513d602081101561155f57600080fd5b8101908080519060200190929190505050505b505080806001019150506113f6565b50565b60086020528060005260406000206000915054906101000a900460ff1681565b6000831161161a576040517f08c379a00000000000000000000000000000000000000000000000000000000081526004018080602001828103825260128152602001807f616d6f756e742063616e6e6f742062652030000000000000000000000000000081525060200191505060405180910390fd5b600061162582612247565b905060405160200180807f6461690000000000000000000000000000000000000000000000000000000000815250600301905060405160208183030381529060405280519060200120836040516020018082805190602001908083835b602083106116a55780518252602082019150602081019050602083039250611682565b6001836020036101000a03801982511681845116808217855250505050505090500191505060405160208183030381529060405280519060200120141561180057600360009054906101000a900473ffffffffffffffffffffffffffffffffffffffff1673ffffffffffffffffffffffffffffffffffffffff166323b872dd3383876040518463ffffffff1660e01b8152600401808473ffffffffffffffffffffffffffffffffffffffff1673ffffffffffffffffffffffffffffffffffffffff1681526020018373ffffffffffffffffffffffffffffffffffffffff1673ffffffffffffffffffffffffffffffffffffffff1681526020018281526020019350505050602060405180830381600087803b1580156117c357600080fd5b505af11580156117d7573d6000803e3d6000fd5b505050506040513d60208110156117ed57600080fd5b8101908080519060200190929190505050505b60405160200180807f6461707000000000000000000000000000000000000000000000000000000000815250600401905060405160208183030381529060405280519060200120836040516020018082805190602001908083835b6020831061187e578051825260208201915060208101905060208303925061185b565b6001836020036101000a0380198251168184511680821785525050505050509050019150506040516020818303038152906040528051906020012014156119d957600260009054906101000a900473ffffffffffffffffffffffffffffffffffffffff1673ffffffffffffffffffffffffffffffffffffffff166323b872dd3383876040518463ffffffff1660e01b8152600401808473ffffffffffffffffffffffffffffffffffffffff1673ffffffffffffffffffffffffffffffffffffffff1681526020018373ffffffffffffffffffffffffffffffffffffffff1673ffffffffffffffffffffffffffffffffffffffff1681526020018281526020019350505050602060405180830381600087803b15801561199c57600080fd5b505af11580156119b0573d6000803e3d6000fd5b505050506040513d60208110156119c657600080fd5b8101908080519060200190929190505050505b60405160200180807f6264746600000000000000000000000000000000000000000000000000000000815250600401905060405160208183030381529060405280519060200120836040516020018082805190602001908083835b60208310611a575780518252602082019150602081019050602083039250611a34565b6001836020036101000a038019825116818451168082178552505050505050905001915050604051602081830303815290604052805190602001201415611bb257600460009054906101000a900473ffffffffffffffffffffffffffffffffffffffff1673ffffffffffffffffffffffffffffffffffffffff166323b872dd3383876040518463ffffffff1660e01b8152600401808473ffffffffffffffffffffffffffffffffffffffff1673ffffffffffffffffffffffffffffffffffffffff1681526020018373ffffffffffffffffffffffffffffffffffffffff1673ffffffffffffffffffffffffffffffffffffffff1681526020018281526020019350505050602060405180830381600087803b158015611b7557600080fd5b505af1158015611b89573d6000803e3d6000fd5b505050506040513d6020811015611b9f57600080fd5b8101908080519060200190929190505050505b50505050565b6000600260009054906101000a900473ffffffffffffffffffffffffffffffffffffffff1673ffffffffffffffffffffffffffffffffffffffff166370a08231336040518263ffffffff1660e01b8152600401808273ffffffffffffffffffffffffffffffffffffffff1673ffffffffffffffffffffffffffffffffffffffff16815260200191505060206040518083038186803b158015611c5957600080fd5b505afa158015611c6d573d6000803e3d6000fd5b505050506040513d6020811015611c8357600080fd5b81019080805190602001909291905050509050600260009054906101000a900473ffffffffffffffffffffffffffffffffffffffff1673ffffffffffffffffffffffffffffffffffffffff1663a9059cbb33836040518363ffffffff1660e01b8152600401808373ffffffffffffffffffffffffffffffffffffffff1673ffffffffffffffffffffffffffffffffffffffff16815260200182815260200192505050602060405180830381600087803b158015611d3f57600080fd5b505af1158015611d53573d6000803e3d6000fd5b505050506040513d6020811015611d6957600080fd5b81019080805190602001909291905050505050565b600160009054906101000a900473ffffffffffffffffffffffffffffffffffffffff1681565b600460009054906101000a900473ffffffffffffffffffffffffffffffffffffffff1681565b6000600660003373ffffffffffffffffffffffffffffffffffffffff1673ffffffffffffffffffffffffffffffffffffffff168152602001908152602001600020549050600360009054906101000a900473ffffffffffffffffffffffffffffffffffffffff1673ffffffffffffffffffffffffffffffffffffffff1663a9059cbb33836040518363ffffffff1660e01b8152600401808373ffffffffffffffffffffffffffffffffffffffff1673ffffffffffffffffffffffffffffffffffffffff16815260200182815260200192505050602060405180830381600087803b158015611eb757600080fd5b505af1158015611ecb573d6000803e3d6000fd5b505050506040513d6020811015611ee157600080fd5b8101908080519060200190929190505050506000600660003373ffffffffffffffffffffffffffffffffffffffff1673ffffffffffffffffffffffffffffffffffffffff168152602001908152602001600020819055506000600760003373ffffffffffffffffffffffffffffffffffffffff1673ffffffffffffffffffffffffffffffffffffffff16815260200190815260200160002060006101000a81548160ff02191690831515021790555050565b600160009054906101000a900473ffffffffffffffffffffffffffffffffffffffff1673ffffffffffffffffffffffffffffffffffffffff163373ffffffffffffffffffffffffffffffffffffffff1614612056576040517f08c379a00000000000000000000000000000000000000000000000000000000081526004018080602001828103825260148152602001807f63616c6c6572206d757374206265206f776e657200000000000000000000000081525060200191505060405180910390fd5b600260009054906101000a900473ffffffffffffffffffffffffffffffffffffffff1673ffffffffffffffffffffffffffffffffffffffff1663a9059cbb82856040518363ffffffff1660e01b8152600401808373ffffffffffffffffffffffffffffffffffffffff1673ffffffffffffffffffffffffffffffffffffffff16815260200182815260200192505050602060405180830381600087803b1580156120ff57600080fd5b505af1158015612113573d6000803e3d6000fd5b505050506040513d602081101561212957600080fd5b81019080805190602001909291905050505081600660003373ffffffffffffffffffffffffffffffffffffffff1673ffffffffffffffffffffffffffffffffffffffff1681526020019081526020016000205403600660003373ffffffffffffffffffffffffffffffffffffffff1673ffffffffffffffffffffffffffffffffffffffff16815260200190815260200160002081905550505050565b600360009054906101000a900473ffffffffffffffffffffffffffffffffffffffff1681565b60076020528060005260406000206000915054906101000a900460ff1681565b6005818154811061221857fe5b906000526020600020016000915054906101000a900473ffffffffffffffffffffffffffffffffffffffff1681565b6000606082905060008090506000806000600290505b602a811015612493576101008402935084818151811061227957fe5b602001015160f81c60f81b60f81c60ff16925084600182018151811061229b57fe5b602001015160f81c60f81b60f81c60ff16915060618373ffffffffffffffffffffffffffffffffffffffff16101580156122ec575060668373ffffffffffffffffffffffffffffffffffffffff1611155b156122fc57605783039250612396565b60418373ffffffffffffffffffffffffffffffffffffffff161015801561233a575060468373ffffffffffffffffffffffffffffffffffffffff1611155b1561234a57603783039250612395565b60308373ffffffffffffffffffffffffffffffffffffffff1610158015612388575060398373ffffffffffffffffffffffffffffffffffffffff1611155b15612394576030830392505b5b5b60618273ffffffffffffffffffffffffffffffffffffffff16101580156123d4575060668273ffffffffffffffffffffffffffffffffffffffff1611155b156123e45760578203915061247e565b60418273ffffffffffffffffffffffffffffffffffffffff1610158015612422575060468273ffffffffffffffffffffffffffffffffffffffff1611155b156124325760378203915061247d565b60308273ffffffffffffffffffffffffffffffffffffffff1610158015612470575060398273ffffffffffffffffffffffffffffffffffffffff1611155b1561247c576030820391505b5b5b8160108402018401935060028101905061225d565b508294505050505091905056fea265627a7a72315820230430a2b3a02b12a2c14c12cd439309fc5f1c93c16768984efb234820da66ff64736f6c63430005100032",
  "source": "pragma solidity ^0.5.0;\r\n\r\n//pull Src code of the two token into this file\r\nimport \"./DappToken.sol\";\r\nimport \"./DaiToken.sol\";\r\nimport \"./BdtfToken.sol\";\r\n\r\n\r\n//assume both tokens has been deployed into the network\r\n\r\ncontract TokenFarm {\r\n    //give contract name\r\n    string public name = \"Dapp Token Farms\";\r\n    // this is variable ^ stored on BC -- solidity is statically typed\r\n\r\n    address public owner;\r\n\r\n    //state variable -- global var\r\n    DappToken public dappToken;\r\n    DaiToken public daiToken;\r\n    BdtfToken public bdtfToken;\r\n\r\n    address[] public stakers;\r\n    mapping(address => uint256) public stakingBalance;\r\n    mapping(address => bool) public hasStaked;\r\n    mapping(address => bool) public isStaking;\r\n\r\n    constructor(DappToken _dappToken, DaiToken _daiToken, BdtfToken _bdtfToken) public {\r\n        //get address from both deployed tokens (where they are located) and pass them into SC tokenfarm whenever its created\r\n        //assign into state variable\r\n        dappToken = _dappToken;\r\n        daiToken = _daiToken;\r\n        bdtfToken = _bdtfToken;\r\n        owner = msg.sender;\r\n    }\r\n\r\n    //1. stake tokens (Deposit) //xfer money from investor to the TokenFarm SC\r\n    // CHANGE THIS FUNCTION TO EXCHANGE\r\n    function stakeTokens(uint256 _amount,  string memory _type, uint256 _currency, string memory _typeto) public {\r\n        //error handling\r\n        require(_amount > 0, \"amount cannot be 0\");\r\n       \r\n        // deposit\r\n        if (keccak256(abi.encodePacked(_type)) == keccak256(abi.encodePacked(\"dai\"))){\r\n            daiToken.transferFrom(msg.sender, address(this), _amount);\r\n        }\r\n        if (keccak256(abi.encodePacked(_type)) == keccak256(abi.encodePacked(\"dapp\"))){\r\n            dappToken.transferFrom(msg.sender, address(this), _amount);\r\n        }\r\n        if (keccak256(abi.encodePacked(_type)) == keccak256(abi.encodePacked(\"bdtf\"))){\r\n            bdtfToken.transferFrom(msg.sender, address(this), _amount);\r\n        }\r\n\r\n        // exchanged\r\n        if (keccak256(abi.encodePacked(_typeto)) == keccak256(abi.encodePacked(\"dapp\"))){\r\n            dappToken.transfer(msg.sender, _currency);\r\n        }\r\n        if (keccak256(abi.encodePacked(_typeto)) == keccak256(abi.encodePacked(\"dai\"))){\r\n            daiToken.transfer(msg.sender, _currency);\r\n        }\r\n        if (keccak256(abi.encodePacked(_typeto)) == keccak256(abi.encodePacked(\"bdtf\"))){\r\n            bdtfToken.transfer(msg.sender, _currency);\r\n        }\r\n        //xfer Mock Dai tokens to this SC\r\n        //msg is a global var... sender is whoever initiated that function\r\n        // deposit\r\n        // if (_type == \"dai\"){\r\n        //     daiToken.transferFrom(msg.sender, address(this), _amount);\r\n        // }\r\n        // if (_type == \"dapp\"){\r\n        //     dappToken.transferFrom(msg.sender, address(this), _amount);\r\n        // }\r\n\r\n        // if (_typeto == \"dapp\"){\r\n        //     dappToken.transfer(msg.sender, _currency);\r\n        // }\r\n        // if (_typeto == \"dai\"){\r\n        //     daiToken.transfer(msg.sender, _currency);\r\n        // }\r\n        // if (_type == \"dapp\"){\r\n        //     dappToken.transfer(msg.sender, amtSend);\r\n        // }\r\n\r\n\r\n\r\n\r\n        // if (_type == \"dapp\") {\r\n        // if (_type == \"php\") {\r\n        \r\n\r\n\r\n        //Update staking balance\r\n        // stakingBalance[msg.sender] = stakingBalance[msg.sender] + _amount;\r\n\r\n        //add user to staker array *only if they havent stake already //dont think this is needed\r\n        // if (!hasStaked[msg.sender]) {\r\n        //     stakers.push(msg.sender);\r\n        // }\r\n\r\n        // //update staking status //dont think this is needed\r\n        // isStaking[msg.sender] = true;\r\n        // hasStaked[msg.sender] = true;\r\n        // exchangeToken(_amount);\r\n    }\r\n    function parseAddr(string memory _a) internal pure returns (address _parsedAddress) {\r\n    bytes memory tmp = bytes(_a);\r\n    uint160 iaddr = 0;\r\n    uint160 b1;\r\n    uint160 b2;\r\n    for (uint i = 2; i < 2 + 2 * 20; i += 2) {\r\n        iaddr *= 256;\r\n        b1 = uint160(uint8(tmp[i]));\r\n        b2 = uint160(uint8(tmp[i + 1]));\r\n        if ((b1 >= 97) && (b1 <= 102)) {\r\n            b1 -= 87;\r\n        } else if ((b1 >= 65) && (b1 <= 70)) {\r\n            b1 -= 55;\r\n        } else if ((b1 >= 48) && (b1 <= 57)) {\r\n            b1 -= 48;\r\n        }\r\n        if ((b2 >= 97) && (b2 <= 102)) {\r\n            b2 -= 87;\r\n        } else if ((b2 >= 65) && (b2 <= 70)) {\r\n            b2 -= 55;\r\n        } else if ((b2 >= 48) && (b2 <= 57)) {\r\n            b2 -= 48;\r\n        }\r\n        iaddr += (b1 * 16 + b2);\r\n    }\r\n        return address(iaddr);\r\n    }\r\n    function P2P_Xfers(uint256 _amount,  string memory _type , string memory _typeto) public {\r\n        //error handling\r\n        require(_amount > 0, \"amount cannot be 0\");\r\n        //string memory recieverRAW = '0x62D7a3B65bC34Fc623552119865F90939b550054';\r\n        address reciever = parseAddr(_typeto);\r\n\r\n        // deposit\r\n        if (keccak256(abi.encodePacked(_type)) == keccak256(abi.encodePacked(\"dai\"))){\r\n            daiToken.transferFrom(msg.sender,address(reciever), _amount);\r\n        }\r\n        if (keccak256(abi.encodePacked(_type)) == keccak256(abi.encodePacked(\"dapp\"))){\r\n            dappToken.transferFrom(msg.sender, address(reciever), _amount);\r\n        }\r\n        if (keccak256(abi.encodePacked(_type)) == keccak256(abi.encodePacked(\"bdtf\"))){\r\n            bdtfToken.transferFrom(msg.sender, address(reciever), _amount);\r\n        }\r\n    }\r\n\r\n\r\n    //2. unstaking tokens (Withdraw)\r\n    function unstakeTokens() public {\r\n        //fetch staking balance\r\n        uint256 balance = stakingBalance[msg.sender];\r\n\r\n        //xfer deposit token (daitoken) back to investor\r\n        daiToken.transfer(msg.sender, balance);\r\n\r\n        //reset staking\r\n        stakingBalance[msg.sender] = 0;\r\n\r\n        //update staking status\r\n        hasStaked[msg.sender] = false;\r\n    }\r\n\r\n    // function exchangeToken(_amount) public {\r\n    //     // require(msg.sender == owner, \"caller must be owner\");\r\n    //     dappToken.transfer(msg.sender, _amount);\r\n\r\n  \r\n    // }\r\n    //3. issuing tokens (-- give it to another account here )\r\n    function issueTokens() public {\r\n        require(msg.sender == owner, \"caller must be owner\");\r\n\r\n        for (uint256 i = 0; i < stakers.length; i++) {\r\n            address recipient = stakers[i];\r\n            uint256 balance = stakingBalance[recipient];\r\n            if (balance > 0) {\r\n                dappToken.transfer(recipient, balance);\r\n            }\r\n        }\r\n    }\r\n\r\n    //what we need???!!\r\n\r\n    //press a button to xfer = call this function!\r\n    //amountToSend is the calculated rate (For example xfer 1USD over, the recipent will receive equivalent money depending on the currency (for example SGD is 1.3))\r\n    //need to know address of recipent --> check tmr!\r\n    function xferTokens(\r\n        uint256 _amountToSend,\r\n        uint256 _amountOfCurrent,\r\n        address _toAddress\r\n    ) public {\r\n        //only owner can call this function\r\n        require(msg.sender == owner, \"caller must be owner\");\r\n        //xfer Mock Dai tokens to this SC\r\n        //msg is a global var... sender is whoever initiated that function\r\n        //xfer to another account --> tokenFarm already have that token xfer to it, like dApp token liddat\r\n        // anotherToken.transfer(_toAddress, _amount)\r\n        //cr8 var amountoSend --> check exchnage rate first\r\n        dappToken.transfer(_toAddress, _amountToSend); //amttosend here);\r\n\r\n        //Update deposit balance\r\n        stakingBalance[msg.sender] =\r\n            stakingBalance[msg.sender] -\r\n            _amountOfCurrent;\r\n    }\r\n\r\n    //login as recipient account and withdraw the money received , press a button to withdraw\r\n    //have a page called \"Balance\" , auto update balance??? and have withdraw button\r\n    function withdrawTokens() public {\r\n        //fetch current balance (if got xfer)\r\n        //depend on currency and replace dapptoken accordingly\r\n        uint256 balance = dappToken.balanceOf(msg.sender);\r\n\r\n        //xfer given token (dapptoken) to own account -- same for this\r\n        dappToken.transfer(msg.sender, balance);\r\n    }\r\n\r\n    //try send money\r\n}\r\n",
  "sourcePath": "/mnt/d/Y4S1/IS452/Forest/blockchain/src/contracts/TokenFarm.sol",
  "compiler": {
    "name": "solc",
    "version": "0.5.16+commit.9c3226ce.Emscripten.clang"
  },
  "schemaVersion": "3.4.3",
  "updatedAt": "2021-11-08T05:44:34.396Z",
  "networkType": "ethereum",
  "devdoc": {
    "methods": {}
  },
  "userdoc": {
    "methods": {}
  }
}