{
  "contractName": "TokenFarm",
  "abi": [
    {
      "inputs": [
        {
          "internalType": "contract DappToken",
          "name": "_dappToken",
          "type": "address"
        },
        {
          "internalType": "contract DaiToken",
          "name": "_daiToken",
          "type": "address"
        },
        {
          "internalType": "contract BdtfToken",
          "name": "_bdtfToken",
          "type": "address"
        }
      ],
      "payable": false,
      "stateMutability": "nonpayable",
      "type": "constructor"
    },
    {
      "constant": true,
      "inputs": [],
      "name": "bdtfToken",
      "outputs": [
        {
          "internalType": "contract BdtfToken",
          "name": "",
          "type": "address"
        }
      ],
      "payable": false,
      "stateMutability": "view",
      "type": "function"
    },
    {
      "constant": true,
      "inputs": [],
      "name": "daiToken",
      "outputs": [
        {
          "internalType": "contract DaiToken",
          "name": "",
          "type": "address"
        }
      ],
      "payable": false,
      "stateMutability": "view",
      "type": "function"
    },
    {
      "constant": true,
      "inputs": [],
      "name": "dappToken",
      "outputs": [
        {
          "internalType": "contract DappToken",
          "name": "",
          "type": "address"
        }
      ],
      "payable": false,
      "stateMutability": "view",
      "type": "function"
    },
    {
      "constant": true,
      "inputs": [
        {
          "internalType": "address",
          "name": "",
          "type": "address"
        }
      ],
      "name": "hasStaked",
      "outputs": [
        {
          "internalType": "bool",
          "name": "",
          "type": "bool"
        }
      ],
      "payable": false,
      "stateMutability": "view",
      "type": "function"
    },
    {
      "constant": true,
      "inputs": [
        {
          "internalType": "address",
          "name": "",
          "type": "address"
        }
      ],
      "name": "isStaking",
      "outputs": [
        {
          "internalType": "bool",
          "name": "",
          "type": "bool"
        }
      ],
      "payable": false,
      "stateMutability": "view",
      "type": "function"
    },
    {
      "constant": true,
      "inputs": [],
      "name": "name",
      "outputs": [
        {
          "internalType": "string",
          "name": "",
          "type": "string"
        }
      ],
      "payable": false,
      "stateMutability": "view",
      "type": "function"
    },
    {
      "constant": true,
      "inputs": [],
      "name": "owner",
      "outputs": [
        {
          "internalType": "address",
          "name": "",
          "type": "address"
        }
      ],
      "payable": false,
      "stateMutability": "view",
      "type": "function"
    },
    {
      "constant": true,
      "inputs": [
        {
          "internalType": "uint256",
          "name": "",
          "type": "uint256"
        }
      ],
      "name": "stakers",
      "outputs": [
        {
          "internalType": "address",
          "name": "",
          "type": "address"
        }
      ],
      "payable": false,
      "stateMutability": "view",
      "type": "function"
    },
    {
      "constant": true,
      "inputs": [
        {
          "internalType": "address",
          "name": "",
          "type": "address"
        }
      ],
      "name": "stakingBalance",
      "outputs": [
        {
          "internalType": "uint256",
          "name": "",
          "type": "uint256"
        }
      ],
      "payable": false,
      "stateMutability": "view",
      "type": "function"
    },
    {
      "constant": false,
      "inputs": [
        {
          "internalType": "uint256",
          "name": "_amount",
          "type": "uint256"
        },
        {
          "internalType": "string",
          "name": "_type",
          "type": "string"
        },
        {
          "internalType": "uint256",
          "name": "_currency",
          "type": "uint256"
        },
        {
          "internalType": "string",
          "name": "_typeto",
          "type": "string"
        }
      ],
      "name": "stakeTokens",
      "outputs": [],
      "payable": false,
      "stateMutability": "nonpayable",
      "type": "function"
    },
    {
      "constant": false,
      "inputs": [],
      "name": "unstakeTokens",
      "outputs": [],
      "payable": false,
      "stateMutability": "nonpayable",
      "type": "function"
    },
    {
      "constant": false,
      "inputs": [],
      "name": "issueTokens",
      "outputs": [],
      "payable": false,
      "stateMutability": "nonpayable",
      "type": "function"
    },
    {
      "constant": false,
      "inputs": [
        {
          "internalType": "uint256",
          "name": "_amountToSend",
          "type": "uint256"
        },
        {
          "internalType": "uint256",
          "name": "_amountOfCurrent",
          "type": "uint256"
        },
        {
          "internalType": "address",
          "name": "_toAddress",
          "type": "address"
        }
      ],
      "name": "xferTokens",
      "outputs": [],
      "payable": false,
      "stateMutability": "nonpayable",
      "type": "function"
    },
    {
      "constant": false,
      "inputs": [],
      "name": "withdrawTokens",
      "outputs": [],
      "payable": false,
      "stateMutability": "nonpayable",
      "type": "function"
    }
  ],
  "bytecode": "0x60806040526040518060400160405280601081526020017f4461707020546f6b656e204661726d73000000000000000000000000000000008152506000908051906020019062000051929190620001b7565b503480156200005f57600080fd5b5060405162001d7738038062001d77833981810160405260608110156200008557600080fd5b8101908080519060200190929190805190602001909291908051906020019092919050505082600260006101000a81548173ffffffffffffffffffffffffffffffffffffffff021916908373ffffffffffffffffffffffffffffffffffffffff16021790555081600360006101000a81548173ffffffffffffffffffffffffffffffffffffffff021916908373ffffffffffffffffffffffffffffffffffffffff16021790555080600460006101000a81548173ffffffffffffffffffffffffffffffffffffffff021916908373ffffffffffffffffffffffffffffffffffffffff16021790555033600160006101000a81548173ffffffffffffffffffffffffffffffffffffffff021916908373ffffffffffffffffffffffffffffffffffffffff16021790555050505062000266565b828054600181600116156101000203166002900490600052602060002090601f016020900481019282601f10620001fa57805160ff19168380011785556200022b565b828001600101855582156200022b579182015b828111156200022a5782518255916020019190600101906200020d565b5b5090506200023a91906200023e565b5090565b6200026391905b808211156200025f57600081600090555060010162000245565b5090565b90565b611b0180620002766000396000f3fe608060405234801561001057600080fd5b50600436106100ea5760003560e01c80638da5cb5b1161008c578063bc5253c211610066578063bc5253c214610488578063be22f546146104e0578063c93c8f341461052a578063fd5e6dd114610586576100ea565b80638da5cb5b146103ea578063907ad86614610434578063a5ce413b1461047e576100ea565b80635eb186f8116100c85780635eb186f81461033057806360ab58521461037a5780636f49712b146103845780638d8f2adb146103e0576100ea565b806306fdde03146100ef57806313b314921461017257806345bc78ab146102d8575b600080fd5b6100f76105f4565b6040518080602001828103825283818151815260200191508051906020019080838360005b8381101561013757808201518184015260208101905061011c565b50505050905090810190601f1680156101645780820380516001836020036101000a031916815260200191505b509250505060405180910390f35b6102d66004803603608081101561018857600080fd5b8101908080359060200190929190803590602001906401000000008111156101af57600080fd5b8201836020820111156101c157600080fd5b803590602001918460018302840111640100000000831117156101e357600080fd5b91908080601f016020809104026020016040519081016040528093929190818152602001838380828437600081840152601f19601f820116905080830192505050505050509192919290803590602001909291908035906020019064010000000081111561025057600080fd5b82018360208201111561026257600080fd5b8035906020019184600183028401116401000000008311171561028457600080fd5b91908080601f016020809104026020016040519081016040528093929190818152602001838380828437600081840152601f19601f820116905080830192505050505050509192919290505050610692565b005b61031a600480360360208110156102ee57600080fd5b81019080803573ffffffffffffffffffffffffffffffffffffffff169060200190929190505050611188565b6040518082815260200191505060405180910390f35b6103386111a0565b604051808273ffffffffffffffffffffffffffffffffffffffff1673ffffffffffffffffffffffffffffffffffffffff16815260200191505060405180910390f35b6103826111c6565b005b6103c66004803603602081101561039a57600080fd5b81019080803573ffffffffffffffffffffffffffffffffffffffff16906020019092919050505061141d565b604051808215151515815260200191505060405180910390f35b6103e861143d565b005b6103f2611603565b604051808273ffffffffffffffffffffffffffffffffffffffff1673ffffffffffffffffffffffffffffffffffffffff16815260200191505060405180910390f35b61043c611629565b604051808273ffffffffffffffffffffffffffffffffffffffff1673ffffffffffffffffffffffffffffffffffffffff16815260200191505060405180910390f35b61048661164f565b005b6104de6004803603606081101561049e57600080fd5b810190808035906020019092919080359060200190929190803573ffffffffffffffffffffffffffffffffffffffff169060200190929190505050611818565b005b6104e8611a4a565b604051808273ffffffffffffffffffffffffffffffffffffffff1673ffffffffffffffffffffffffffffffffffffffff16815260200191505060405180910390f35b61056c6004803603602081101561054057600080fd5b81019080803573ffffffffffffffffffffffffffffffffffffffff169060200190929190505050611a70565b604051808215151515815260200191505060405180910390f35b6105b26004803603602081101561059c57600080fd5b8101908080359060200190929190505050611a90565b604051808273ffffffffffffffffffffffffffffffffffffffff1673ffffffffffffffffffffffffffffffffffffffff16815260200191505060405180910390f35b60008054600181600116156101000203166002900480601f01602080910402602001604051908101604052809291908181526020018280546001816001161561010002031660029004801561068a5780601f1061065f5761010080835404028352916020019161068a565b820191906000526020600020905b81548152906001019060200180831161066d57829003601f168201915b505050505081565b60008411610708576040517f08c379a00000000000000000000000000000000000000000000000000000000081526004018080602001828103825260128152602001807f616d6f756e742063616e6e6f742062652030000000000000000000000000000081525060200191505060405180910390fd5b60405160200180807f6461690000000000000000000000000000000000000000000000000000000000815250600301905060405160208183030381529060405280519060200120836040516020018082805190602001908083835b602083106107865780518252602082019150602081019050602083039250610763565b6001836020036101000a0380198251168184511680821785525050505050509050019150506040516020818303038152906040528051906020012014156108e157600360009054906101000a900473ffffffffffffffffffffffffffffffffffffffff1673ffffffffffffffffffffffffffffffffffffffff166323b872dd3330876040518463ffffffff1660e01b8152600401808473ffffffffffffffffffffffffffffffffffffffff1673ffffffffffffffffffffffffffffffffffffffff1681526020018373ffffffffffffffffffffffffffffffffffffffff1673ffffffffffffffffffffffffffffffffffffffff1681526020018281526020019350505050602060405180830381600087803b1580156108a457600080fd5b505af11580156108b8573d6000803e3d6000fd5b505050506040513d60208110156108ce57600080fd5b8101908080519060200190929190505050505b60405160200180807f6461707000000000000000000000000000000000000000000000000000000000815250600401905060405160208183030381529060405280519060200120836040516020018082805190602001908083835b6020831061095f578051825260208201915060208101905060208303925061093c565b6001836020036101000a038019825116818451168082178552505050505050905001915050604051602081830303815290604052805190602001201415610aba57600260009054906101000a900473ffffffffffffffffffffffffffffffffffffffff1673ffffffffffffffffffffffffffffffffffffffff166323b872dd3330876040518463ffffffff1660e01b8152600401808473ffffffffffffffffffffffffffffffffffffffff1673ffffffffffffffffffffffffffffffffffffffff1681526020018373ffffffffffffffffffffffffffffffffffffffff1673ffffffffffffffffffffffffffffffffffffffff1681526020018281526020019350505050602060405180830381600087803b158015610a7d57600080fd5b505af1158015610a91573d6000803e3d6000fd5b505050506040513d6020811015610aa757600080fd5b8101908080519060200190929190505050505b60405160200180807f6264746600000000000000000000000000000000000000000000000000000000815250600401905060405160208183030381529060405280519060200120836040516020018082805190602001908083835b60208310610b385780518252602082019150602081019050602083039250610b15565b6001836020036101000a038019825116818451168082178552505050505050905001915050604051602081830303815290604052805190602001201415610c9357600460009054906101000a900473ffffffffffffffffffffffffffffffffffffffff1673ffffffffffffffffffffffffffffffffffffffff166323b872dd3330876040518463ffffffff1660e01b8152600401808473ffffffffffffffffffffffffffffffffffffffff1673ffffffffffffffffffffffffffffffffffffffff1681526020018373ffffffffffffffffffffffffffffffffffffffff1673ffffffffffffffffffffffffffffffffffffffff1681526020018281526020019350505050602060405180830381600087803b158015610c5657600080fd5b505af1158015610c6a573d6000803e3d6000fd5b505050506040513d6020811015610c8057600080fd5b8101908080519060200190929190505050505b60405160200180807f6461707000000000000000000000000000000000000000000000000000000000815250600401905060405160208183030381529060405280519060200120816040516020018082805190602001908083835b60208310610d115780518252602082019150602081019050602083039250610cee565b6001836020036101000a038019825116818451168082178552505050505050905001915050604051602081830303815290604052805190602001201415610e3857600260009054906101000a900473ffffffffffffffffffffffffffffffffffffffff1673ffffffffffffffffffffffffffffffffffffffff1663a9059cbb33846040518363ffffffff1660e01b8152600401808373ffffffffffffffffffffffffffffffffffffffff1673ffffffffffffffffffffffffffffffffffffffff16815260200182815260200192505050602060405180830381600087803b158015610dfb57600080fd5b505af1158015610e0f573d6000803e3d6000fd5b505050506040513d6020811015610e2557600080fd5b8101908080519060200190929190505050505b60405160200180807f6461690000000000000000000000000000000000000000000000000000000000815250600301905060405160208183030381529060405280519060200120816040516020018082805190602001908083835b60208310610eb65780518252602082019150602081019050602083039250610e93565b6001836020036101000a038019825116818451168082178552505050505050905001915050604051602081830303815290604052805190602001201415610fdd57600360009054906101000a900473ffffffffffffffffffffffffffffffffffffffff1673ffffffffffffffffffffffffffffffffffffffff1663a9059cbb33846040518363ffffffff1660e01b8152600401808373ffffffffffffffffffffffffffffffffffffffff1673ffffffffffffffffffffffffffffffffffffffff16815260200182815260200192505050602060405180830381600087803b158015610fa057600080fd5b505af1158015610fb4573d6000803e3d6000fd5b505050506040513d6020811015610fca57600080fd5b8101908080519060200190929190505050505b60405160200180807f6264746600000000000000000000000000000000000000000000000000000000815250600401905060405160208183030381529060405280519060200120816040516020018082805190602001908083835b6020831061105b5780518252602082019150602081019050602083039250611038565b6001836020036101000a03801982511681845116808217855250505050505090500191505060405160208183030381529060405280519060200120141561118257600460009054906101000a900473ffffffffffffffffffffffffffffffffffffffff1673ffffffffffffffffffffffffffffffffffffffff1663a9059cbb33846040518363ffffffff1660e01b8152600401808373ffffffffffffffffffffffffffffffffffffffff1673ffffffffffffffffffffffffffffffffffffffff16815260200182815260200192505050602060405180830381600087803b15801561114557600080fd5b505af1158015611159573d6000803e3d6000fd5b505050506040513d602081101561116f57600080fd5b8101908080519060200190929190505050505b50505050565b60066020528060005260406000206000915090505481565b600260009054906101000a900473ffffffffffffffffffffffffffffffffffffffff1681565b600160009054906101000a900473ffffffffffffffffffffffffffffffffffffffff1673ffffffffffffffffffffffffffffffffffffffff163373ffffffffffffffffffffffffffffffffffffffff1614611289576040517f08c379a00000000000000000000000000000000000000000000000000000000081526004018080602001828103825260148152602001807f63616c6c6572206d757374206265206f776e657200000000000000000000000081525060200191505060405180910390fd5b60008090505b60058054905081101561141a576000600582815481106112ab57fe5b9060005260206000200160009054906101000a900473ffffffffffffffffffffffffffffffffffffffff1690506000600660008373ffffffffffffffffffffffffffffffffffffffff1673ffffffffffffffffffffffffffffffffffffffff168152602001908152602001600020549050600081111561140b57600260009054906101000a900473ffffffffffffffffffffffffffffffffffffffff1673ffffffffffffffffffffffffffffffffffffffff1663a9059cbb83836040518363ffffffff1660e01b8152600401808373ffffffffffffffffffffffffffffffffffffffff1673ffffffffffffffffffffffffffffffffffffffff16815260200182815260200192505050602060405180830381600087803b1580156113ce57600080fd5b505af11580156113e2573d6000803e3d6000fd5b505050506040513d60208110156113f857600080fd5b8101908080519060200190929190505050505b5050808060010191505061128f565b50565b60086020528060005260406000206000915054906101000a900460ff1681565b6000600260009054906101000a900473ffffffffffffffffffffffffffffffffffffffff1673ffffffffffffffffffffffffffffffffffffffff166370a08231336040518263ffffffff1660e01b8152600401808273ffffffffffffffffffffffffffffffffffffffff1673ffffffffffffffffffffffffffffffffffffffff16815260200191505060206040518083038186803b1580156114de57600080fd5b505afa1580156114f2573d6000803e3d6000fd5b505050506040513d602081101561150857600080fd5b81019080805190602001909291905050509050600260009054906101000a900473ffffffffffffffffffffffffffffffffffffffff1673ffffffffffffffffffffffffffffffffffffffff1663a9059cbb33836040518363ffffffff1660e01b8152600401808373ffffffffffffffffffffffffffffffffffffffff1673ffffffffffffffffffffffffffffffffffffffff16815260200182815260200192505050602060405180830381600087803b1580156115c457600080fd5b505af11580156115d8573d6000803e3d6000fd5b505050506040513d60208110156115ee57600080fd5b81019080805190602001909291905050505050565b600160009054906101000a900473ffffffffffffffffffffffffffffffffffffffff1681565b600460009054906101000a900473ffffffffffffffffffffffffffffffffffffffff1681565b6000600660003373ffffffffffffffffffffffffffffffffffffffff1673ffffffffffffffffffffffffffffffffffffffff168152602001908152602001600020549050600360009054906101000a900473ffffffffffffffffffffffffffffffffffffffff1673ffffffffffffffffffffffffffffffffffffffff1663a9059cbb33836040518363ffffffff1660e01b8152600401808373ffffffffffffffffffffffffffffffffffffffff1673ffffffffffffffffffffffffffffffffffffffff16815260200182815260200192505050602060405180830381600087803b15801561173c57600080fd5b505af1158015611750573d6000803e3d6000fd5b505050506040513d602081101561176657600080fd5b8101908080519060200190929190505050506000600660003373ffffffffffffffffffffffffffffffffffffffff1673ffffffffffffffffffffffffffffffffffffffff168152602001908152602001600020819055506000600760003373ffffffffffffffffffffffffffffffffffffffff1673ffffffffffffffffffffffffffffffffffffffff16815260200190815260200160002060006101000a81548160ff02191690831515021790555050565b600160009054906101000a900473ffffffffffffffffffffffffffffffffffffffff1673ffffffffffffffffffffffffffffffffffffffff163373ffffffffffffffffffffffffffffffffffffffff16146118db576040517f08c379a00000000000000000000000000000000000000000000000000000000081526004018080602001828103825260148152602001807f63616c6c6572206d757374206265206f776e657200000000000000000000000081525060200191505060405180910390fd5b600260009054906101000a900473ffffffffffffffffffffffffffffffffffffffff1673ffffffffffffffffffffffffffffffffffffffff1663a9059cbb82856040518363ffffffff1660e01b8152600401808373ffffffffffffffffffffffffffffffffffffffff1673ffffffffffffffffffffffffffffffffffffffff16815260200182815260200192505050602060405180830381600087803b15801561198457600080fd5b505af1158015611998573d6000803e3d6000fd5b505050506040513d60208110156119ae57600080fd5b81019080805190602001909291905050505081600660003373ffffffffffffffffffffffffffffffffffffffff1673ffffffffffffffffffffffffffffffffffffffff1681526020019081526020016000205403600660003373ffffffffffffffffffffffffffffffffffffffff1673ffffffffffffffffffffffffffffffffffffffff16815260200190815260200160002081905550505050565b600360009054906101000a900473ffffffffffffffffffffffffffffffffffffffff1681565b60076020528060005260406000206000915054906101000a900460ff1681565b60058181548110611a9d57fe5b906000526020600020016000915054906101000a900473ffffffffffffffffffffffffffffffffffffffff168156fea265627a7a72315820649c08f82ae1db08de8ba3d679d761e4446d87e8b63395779ad0f62b03cf42ee64736f6c63430005100032",
  "source": "pragma solidity ^0.5.0;\r\n\r\n//pull Src code of the two token into this file\r\nimport \"./DappToken.sol\";\r\nimport \"./DaiToken.sol\";\r\nimport \"./BdtfToken.sol\";\r\n\r\n\r\n//assume both tokens has been deployed into the network\r\n\r\ncontract TokenFarm {\r\n    //give contract name\r\n    string public name = \"Dapp Token Farms\";\r\n    // this is variable ^ stored on BC -- solidity is statically typed\r\n\r\n    address public owner;\r\n\r\n    //state variable -- global var\r\n    DappToken public dappToken;\r\n    DaiToken public daiToken;\r\n    BdtfToken public bdtfToken;\r\n\r\n    address[] public stakers;\r\n    mapping(address => uint256) public stakingBalance;\r\n    mapping(address => bool) public hasStaked;\r\n    mapping(address => bool) public isStaking;\r\n\r\n    constructor(DappToken _dappToken, DaiToken _daiToken, BdtfToken _bdtfToken) public {\r\n        //get address from both deployed tokens (where they are located) and pass them into SC tokenfarm whenever its created\r\n        //assign into state variable\r\n        dappToken = _dappToken;\r\n        daiToken = _daiToken;\r\n        bdtfToken = _bdtfToken;\r\n        owner = msg.sender;\r\n    }\r\n\r\n    //1. stake tokens (Deposit) //xfer money from investor to the TokenFarm SC\r\n    // CHANGE THIS FUNCTION TO EXCHANGE\r\n    function stakeTokens(uint256 _amount,  string memory _type, uint256 _currency, string memory _typeto) public {\r\n        //error handling\r\n        require(_amount > 0, \"amount cannot be 0\");\r\n       \r\n        // deposit\r\n        if (keccak256(abi.encodePacked(_type)) == keccak256(abi.encodePacked(\"dai\"))){\r\n            daiToken.transferFrom(msg.sender, address(this), _amount);\r\n        }\r\n        if (keccak256(abi.encodePacked(_type)) == keccak256(abi.encodePacked(\"dapp\"))){\r\n            dappToken.transferFrom(msg.sender, address(this), _amount);\r\n        }\r\n        if (keccak256(abi.encodePacked(_type)) == keccak256(abi.encodePacked(\"bdtf\"))){\r\n            bdtfToken.transferFrom(msg.sender, address(this), _amount);\r\n        }\r\n\r\n        // exchanged\r\n        if (keccak256(abi.encodePacked(_typeto)) == keccak256(abi.encodePacked(\"dapp\"))){\r\n            dappToken.transfer(msg.sender, _currency);\r\n        }\r\n        if (keccak256(abi.encodePacked(_typeto)) == keccak256(abi.encodePacked(\"dai\"))){\r\n            daiToken.transfer(msg.sender, _currency);\r\n        }\r\n        if (keccak256(abi.encodePacked(_typeto)) == keccak256(abi.encodePacked(\"bdtf\"))){\r\n            bdtfToken.transfer(msg.sender, _currency);\r\n        }\r\n        //xfer Mock Dai tokens to this SC\r\n        //msg is a global var... sender is whoever initiated that function\r\n        // deposit\r\n        // if (_type == \"dai\"){\r\n        //     daiToken.transferFrom(msg.sender, address(this), _amount);\r\n        // }\r\n        // if (_type == \"dapp\"){\r\n        //     dappToken.transferFrom(msg.sender, address(this), _amount);\r\n        // }\r\n\r\n        // if (_typeto == \"dapp\"){\r\n        //     dappToken.transfer(msg.sender, _currency);\r\n        // }\r\n        // if (_typeto == \"dai\"){\r\n        //     daiToken.transfer(msg.sender, _currency);\r\n        // }\r\n        // if (_type == \"dapp\"){\r\n        //     dappToken.transfer(msg.sender, amtSend);\r\n        // }\r\n\r\n\r\n\r\n\r\n        // if (_type == \"dapp\") {\r\n        // if (_type == \"php\") {\r\n        \r\n\r\n\r\n        //Update staking balance\r\n        // stakingBalance[msg.sender] = stakingBalance[msg.sender] + _amount;\r\n\r\n        //add user to staker array *only if they havent stake already //dont think this is needed\r\n        // if (!hasStaked[msg.sender]) {\r\n        //     stakers.push(msg.sender);\r\n        // }\r\n\r\n        // //update staking status //dont think this is needed\r\n        // isStaking[msg.sender] = true;\r\n        // hasStaked[msg.sender] = true;\r\n        // exchangeToken(_amount);\r\n    }\r\n\r\n    //2. unstaking tokens (Withdraw)\r\n    function unstakeTokens() public {\r\n        //fetch staking balance\r\n        uint256 balance = stakingBalance[msg.sender];\r\n\r\n        //xfer deposit token (daitoken) back to investor\r\n        daiToken.transfer(msg.sender, balance);\r\n\r\n        //reset staking\r\n        stakingBalance[msg.sender] = 0;\r\n\r\n        //update staking status\r\n        hasStaked[msg.sender] = false;\r\n    }\r\n\r\n    // function exchangeToken(_amount) public {\r\n    //     // require(msg.sender == owner, \"caller must be owner\");\r\n    //     dappToken.transfer(msg.sender, _amount);\r\n\r\n  \r\n    // }\r\n    //3. issuing tokens (-- give it to another account here )\r\n    function issueTokens() public {\r\n        require(msg.sender == owner, \"caller must be owner\");\r\n\r\n        for (uint256 i = 0; i < stakers.length; i++) {\r\n            address recipient = stakers[i];\r\n            uint256 balance = stakingBalance[recipient];\r\n            if (balance > 0) {\r\n                dappToken.transfer(recipient, balance);\r\n            }\r\n        }\r\n    }\r\n\r\n    //what we need???!!\r\n\r\n    //press a button to xfer = call this function!\r\n    //amountToSend is the calculated rate (For example xfer 1USD over, the recipent will receive equivalent money depending on the currency (for example SGD is 1.3))\r\n    //need to know address of recipent --> check tmr!\r\n    function xferTokens(\r\n        uint256 _amountToSend,\r\n        uint256 _amountOfCurrent,\r\n        address _toAddress\r\n    ) public {\r\n        //only owner can call this function\r\n        require(msg.sender == owner, \"caller must be owner\");\r\n        //xfer Mock Dai tokens to this SC\r\n        //msg is a global var... sender is whoever initiated that function\r\n        //xfer to another account --> tokenFarm already have that token xfer to it, like dApp token liddat\r\n        // anotherToken.transfer(_toAddress, _amount)\r\n        //cr8 var amountoSend --> check exchnage rate first\r\n        dappToken.transfer(_toAddress, _amountToSend); //amttosend here);\r\n\r\n        //Update deposit balance\r\n        stakingBalance[msg.sender] =\r\n            stakingBalance[msg.sender] -\r\n            _amountOfCurrent;\r\n    }\r\n\r\n    //login as recipient account and withdraw the money received , press a button to withdraw\r\n    //have a page called \"Balance\" , auto update balance??? and have withdraw button\r\n    function withdrawTokens() public {\r\n        //fetch current balance (if got xfer)\r\n        //depend on currency and replace dapptoken accordingly\r\n        uint256 balance = dappToken.balanceOf(msg.sender);\r\n\r\n        //xfer given token (dapptoken) to own account -- same for this\r\n        dappToken.transfer(msg.sender, balance);\r\n    }\r\n\r\n    //try send money\r\n}\r\n",
  "sourcePath": "/mnt/d/Y4S1/IS452/Forest/blockchain/src/contracts/TokenFarm.sol",
  "compiler": {
    "name": "solc",
    "version": "0.5.16+commit.9c3226ce.Emscripten.clang"
  },
  "schemaVersion": "3.4.3",
  "updatedAt": "2021-11-06T20:18:11.420Z",
  "networkType": "ethereum",
  "devdoc": {
    "methods": {}
  },
  "userdoc": {
    "methods": {}
  }
}